:020000040800F2
:1000000000000220994B00082F44000831440008EA
:10001000334400083544000837440008000000005D
:10002000000000000000000000000000394400084B
:100030003B440008000000003D4400083F44000825
:10004000E94B0008E94B0008E94B0008E94B0008C0
:10005000E94B0008E94B0008E94B0008E94B0008B0
:10006000E94B0008E94B0008E94B0008E94B0008A0
:10007000E94B0008E94B0008E94B0008E94B000890
:10008000E94B0008E94B0008E94B0008E94B000880
:10009000E94B0008E94B0008E94B0008E94B000870
:1000A000E94B0008E94B0008E94B0008E94B000860
:1000B000E94B0008E94B0008E94B0008E94B000850
:1000C000E94B0008E94B0008E94B0008E94B000840
:1000D000E94B0008E94B0008E94B0008E94B000830
:1000E000E94B0008E94B0008E94B0008E94B000820
:1000F000E94B0008E94B0008E94B0008E94B000810
:10010000E94B0008E94B0008E94B0008E94B0008FF
:10011000E94B0008E94B0008E94B0008E94B0008EF
:10012000E94B0008E94B0008E94B0008E94B0008DF
:10013000E94B00080000000000000000E94B000847
:10014000E94B0008E94B0008E94B0008E94B0008BF
:10015000E94B0008E94B0008E94B0008E94B0008AF
:10016000E94B0008E94B0008E94B0008E94B00089F
:10017000E94B0008E94B0008000000000000000007
:08018000E94B0008E94B0008FF
:1001900001F0FF01102A2BDB10F0070F08D010F838
:1001A000013B013A8B422DD010F0070F42B3F6D13C
:1001B000F0B441EA012141EA014122F007047FF055
:1001C00000070023F0E80256083C85EA010586EAAC
:1001D000010685FA47F5A3FA87F586FA47F6A5FAE8
:1001E00087F68EB9EED1F0BC01F0FF0102F00702F4
:1001F00032B110F8013B013A83EA010313B1F8D19F
:100200000020704701387047002D06BF354603387F
:10021000073815F0010F07D1013015F4807F02BFB8
:10022000013015F4C03F0130F0BC0138704700BF09
:10023000034613F8012B002AFBD1181A0138704726
:1002400081F0004102E000BF83F0004330B54FEA87
:1002500041044FEA430594EA050F08BF90EA020FF4
:100260001FBF54EA000C55EA020C7FEA645C7FEA87
:10027000655C00F0E2804FEA5454D4EB5555B8BFAA
:100280006D420CDD2C4480EA020281EA030382EA1B
:10029000000083EA010180EA020281EA0303362DAD
:1002A00088BF30BD11F0004F4FEA01314FF4801C80
:1002B0004CEA113102D0404261EB410113F0004F92
:1002C0004FEA03334CEA133302D0524263EB430349
:1002D00094EA050F00F0A780A4F10104D5F1200EE7
:1002E0000DDB02FA0EFC22FA05F2801841F1000142
:1002F00003FA0EF2801843FA05F359410EE0A5F116
:1003000020050EF1200E012A03FA0EFC28BF4CF046
:10031000020C43FA05F3C01851EBE37101F00045FC
:1003200007D54FF0000EDCF1000C7EEB00006EEB09
:100330000101B1F5801F1BD3B1F5001F0CD3490893
:100340005FEA30004FEA3C0C04F101044FEA4452EA
:1003500012F5800F80F09A80BCF1004F08BF5FEA71
:10036000500C50F1000041EB045141EA050130BD51
:100370005FEA4C0C404141EB0101013C28BFB1F563
:10038000801FE9D291F0000F04BF01460020B1FAAE
:1003900081F308BF2033A3F10B03B3F120020CDA81
:1003A0000C3208DD02F1140CC2F10C0201FA0CF05F
:1003B00021FA02F10CE002F11402D8BFC2F1200CC4
:1003C00001FA02F120FA0CFCDCBF41EA0C0190407A
:1003D000E41AA2BF01EB0451294330BD6FEA0404C3
:1003E0001F3C1CDA0C340EDC04F11404C4F12002AE
:1003F00020FA04F001FA02F340EA030021FA04F3C0
:1004000045EA030130BDC4F10C04C4F1200220FA16
:1004100002F001FA04F340EA0300294630BD21FA54
:1004200004F0294630BD94F0000F83F4801306BF1A
:1004300081F480110134013D4EE77FEA645C18BF0E
:100440007FEA655C29D094EA050F08BF90EA020FA5
:1004500005D054EA000C04BF1946104630BD91EA9D
:10046000030F1EBF0021002030BD5FEA545C05D1A0
:100470004000494128BF41F0004130BD14F58004DF
:100480003CBF01F5801130BD01F0004545F0FE4153
:1004900041F470014FF0000030BD7FEA645C1ABF88
:1004A000194610467FEA655C1CBF0B46024650EABF
:1004B000013406BF52EA033591EA030F41F40021EB
:1004C00030BD00BF90F0000F04BF0021704730B571
:1004D0004FF4806404F132044FF000054FF0000146
:1004E00050E700BF90F0000F04BF0021704730B507
:1004F0004FF4806404F1320410F0004548BF4042DC
:100500004FF000013EE700BF42004FEAE2014FEA30
:1005100031014FEA02701FBF12F07F4393F07F4F0B
:1005200081F06051704732F07F4208BF704793F00E
:100530007F4F04BF41F40021704730B54FF4607421
:1005400001F0004521F000411CE700BF50EA010224
:1005500008BF704730B54FF000050AE050EA0102CD
:1005600008BF704730B511F0004502D5404261EB3D
:1005700041014FF4806404F132045FEA915C3FF47E
:10058000D8AE4FF003025FEADC0C18BF03325FEA1B
:10059000DC0C18BF033202EBDC02C2F1200300FACC
:1005A00003FC20FA02F001FA03FE40EA0E0021FAF1
:1005B00002F11444BDE600BF70B54FF0FF0C4CF4DF
:1005C000E06C1CEA11541DBF1CEA135594EA0C0F91
:1005D00095EA0C0F00F0DEF82C4481EA030621EACC
:1005E0004C5123EA4C5350EA013518BF52EA033507
:1005F00041F4801143F4801338D0A0FB02CE4FF0B9
:100600000005E1FB02E506F00042E0FB03E54FF0E8
:100610000006E1FB03569CF0000F18BF4EF0010EE0
:10062000A4F1FF04B6F5007F64F5407404D25FEADC
:100630004E0E6D4146EB060642EAC62141EA55518F
:100640004FEAC52040EA5E504FEACE2EB4F1FD0CD1
:1006500088BFBCF5E06F1ED8BEF1004F08BF5FEA4F
:10066000500E50F1000041EB045170BD06F0004601
:1006700046EA010140EA020081EA0301B4EB5C04AE
:10068000C2BFD4EB0C0541EA045170BD41F48011A6
:100690004FF0000E013C00F3AB8014F1360FDEBFCB
:1006A000002001F0004170BDC4F10004203C35DAA7
:1006B0000C341BDC04F11404C4F1200500FA05F32A
:1006C00020FA04F001FA05F240EA020001F00042CB
:1006D00021F0004110EBD37021FA04F642EB060141
:1006E0005EEA430E08BF20EAD37070BDC4F10C046B
:1006F000C4F1200500FA04F320FA05F001FA04F22F
:1007000040EA020001F0004110EBD37041F100011A
:100710005EEA430E08BF20EAD37070BDC4F1200525
:1007200000FA05F24EEA020E20FA04F301FA05F28D
:1007300043EA020321FA04F001F0004121FA04F235
:1007400020EA020000EBD3705EEA430E08BF20EA05
:10075000D37070BD94F0000F0FD101F0004640003F
:1007600041EB010111F4801F08BF013CF7D041EAC1
:10077000060195F0000F18BF704703F000465200C5
:1007800043EB030313F4801F08BF013DF7D043EA96
:100790000603704794EA0C0F0CEA135518BF95EA4C
:1007A0000C0F0CD050EA410618BF52EA4306D1D1D3
:1007B00081EA030101F000414FF0000070BD50EAF2
:1007C000410606BF1046194652EA430619D094EA7C
:1007D0000C0F02D150EA013613D195EA0C0F05D166
:1007E00052EA03361CBF104619460AD181EA0301BA
:1007F00001F0004141F0FE4141F470014FF0000072
:1008000070BD41F0FE4141F4780170BD70B54FF00C
:10081000FF0C4CF4E06C1CEA11541DBF1CEA13558C
:1008200094EA0C0F95EA0C0F00F0A7F8A4EB05046E
:1008300081EA030E52EA03354FEA013100F0888065
:100840004FEA03334FF0805545EA131343EA12632E
:100850004FEA022245EA111545EA10654FEA0026E3
:100860000EF000419D4208BF964244F1FD0404F59C
:10087000407402D25B084FEA3202B61A65EB0305F8
:100880005B084FEA32024FF480104FF4002CB6EBB5
:10089000020E75EB030E22BFB61A754640EA0C0035
:1008A0005B084FEA3202B6EB020E75EB030E22BF75
:1008B000B61A754640EA5C005B084FEA3202B6EBB6
:1008C000020E75EB030E22BFB61A754640EA9C0075
:1008D0005B084FEA3202B6EB020E75EB030E22BF45
:1008E000B61A754640EADC0055EA060E18D04FEA03
:1008F000051545EA16754FEA06164FEAC30343EAA3
:1009000052734FEAC2025FEA1C1CC0D111F4801F6F
:100910000BD141EA00014FF000004FF0004CB6E768
:1009200011F4801F04BF01430020B4F1FD0C88BF07
:10093000BCF5E06F3FF6AFAEB5EB030C04BFB6EB12
:10094000020C5FEA500C50F1000041EB045170BD05
:100950000EF0004E4EEA113114EB5C04C2BFD4EB32
:100960000C0541EA045170BD41F480114FF0000EB6
:10097000013C90E645EA060E8DE60CEA135594EA32
:100980000C0F08BF95EA0C0F3FF43BAF94EA0C0F35
:100990000AD150EA01347FF434AF95EA0C0F7FF4AA
:1009A00025AF104619462CE795EA0C0F06D152EAFE
:1009B00003353FF4FDAE1046194622E750EA4106E2
:1009C00018BF52EA43067FF4C5AE50EA41047FF4F3
:1009D0000DAF52EA43057FF4EBAE12E74FF0FF3C58
:1009E00006E000BF4FF0010C02E000BF4FF0010C29
:1009F0004DF804CD4FEA410C7FEA6C5C4FEA430CA2
:100A000018BF7FEA6C5C1BD001B050EA410C0CBFF0
:100A100052EA430C91EA030F02BF90EA020F002052
:100A2000704710F1000F91EA030F58BF994208BFB9
:100A300090422CBFD8176FEAE37040F00100704776
:100A40004FEA410C7FEA6C5C02D150EA013C07D1CD
:100A50004FEA430C7FEA6C5CD6D152EA033CD3D018
:100A60005DF8040B704700BF8446104662468C4612
:100A70001946634600E000BF01B5FFF7B7FF002845
:100A800048BF10F1000F01BD4DF808EDFFF7F4FF6E
:100A90000CBF012000205DF808FB00BF4DF808EDF9
:100AA000FFF7EAFF34BF012000205DF808FB00BF1C
:100AB0004DF808EDFFF7E0FF94BF012000205DF83E
:100AC00008FB00BF4DF808EDFFF7CEFF94BF0120F3
:100AD00000205DF808FB00BF4DF808EDFFF7C4FFEC
:100AE00034BF012000205DF808FB00BF4FEA410C35
:100AF0007FEA6C5C02D150EA013C0AD14FEA430C18
:100B00007FEA6C5C02D152EA033C02D14FF0000054
:100B100070474FF0010070474FEA410212F5001292
:100B200015D211D56FF47873B3EB625212D94FEA34
:100B3000C12343F0004343EA505311F0004F23FA1E
:100B400002F018BF404270474FF00000704750EA73
:100B5000013005D111F0004008BF6FF00040704730
:100B60004FF00000704700BF4A0011D212F500128A
:100B700011D20DD56FF47873B3EB62520ED44FEAF5
:100B8000C12343F0004343EA505323FA02F0704775
:100B90004FF00000704750EA013002D14FF0FF30B3
:100BA00070474FF0000070474FEA4102B2F1E04356
:100BB00024BFB3F5001CDCF1FE5C0DD901F0004C44
:100BC0004FEAC0024CEA5070B2F1004F40EB830094
:100BD00008BF20F00100704711F0804F21D113F1C0
:100BE0003872BCBF01F00040704741F480114FEAF9
:100BF0005252C2F11802C2F1200C10FA0CF320FA82
:100C000002F018BF40F001004FEAC1234FEAD3239E
:100C100003FA0CFC40EA0C0023FA02F34FEA430308
:100C2000CCE77FEA625307D150EA01331EBF4FF091
:100C3000FE4040F44000704701F0004040F0FE40AC
:100C400040F40000704700BF53B94AB9002908BFFB
:100C500000281CBF4FF0FF314FF0FF3000F00CB800
:100C6000ADF1080C6DE904CE08F062FBDDF804E09C
:100C7000DDE9022304B07047704700BF0348044B0E
:100C8000834202D0034B03B118477047D4010020C0
:100C9000D4010020000000000548064B1B1AD90FA4
:100CA00001EBA301491002D0034B03B11847704771
:100CB000D4010020D40100200000000010B5064C33
:100CC000237843B9FFF7DAFF044B13B10448AFF3BD
:100CD00000800123237010BDD4010020000000001B
:100CE000EC95000808B5054B1BB105490548AFF365
:100CF0000080BDE80840FFF7CFBF00BF0000000044
:100D0000D8010020EC95000800B583B0009313468D
:100D10000A460146034802F0C5F900B1012003B0BC
:100D20005DF804FBD802002000B583B000931346A1
:100D30000A460146034802F0DDFA00B1012003B083
:100D40005DF804FBD802002008B5034802F0B5FDA9
:100D5000043818BF012008BDD802002008B501469C
:100D6000014802F098FD08BDD802002000B583B00C
:100D700001238DF8073000F025F810B900238DF815
:100D800007309DF8070003B05DF804FB08B5FFF7D6
:100D9000EDFF012801D0012008BD024802F060FDEE
:100DA000FAE700BFD802002008B50349034800F065
:100DB0003FF8034B187008BDF0010020549600085E
:100DC000F401002008B50221034801F0ADF808B98C
:100DD000012008BD0020FCE700000240134B5B7AB5
:100DE00013BB10B5044603F0FF00104B93F809C085
:100DF0005FFA8CFC4FF0000E03F80CE093F809C08A
:100E000003EB8C0CCCF804405C7A1C4422725A7AB6
:100E1000541CE4B25C7230320A703A234B702F23B8
:100E20008B7081F803E010BD01207047F8010020AD
:100E300008B50022FFF7D2FF08BD20B110B5446805
:100E4000C068A04710BD4FF0FF30704720B110B50B
:100E50000468C068A04710BD4FF0FF307047000025
:100E600007EE900AF8EEE77A9FED020A27EE800A75
:100E7000704700BF23DB793D07EE900AF8EEE77A72
:100E80009FED020A27EE800A704700BF00008C42E7
:100E900007EE900AF8EEE77A9FED047A67EE877A1C
:100EA000B3EE090A37EE800A704700BF0000803BAE
:100EB00030B583B004460D46012301AA1021FFF787
:100EC000BCFF08B103B030BD9DF8043065F3830367
:100ED0008DF80430012301AA10212046FFF7B6FF48
:100EE000F0E730B583B004460D46012301AA102176
:100EF000FFF7A3FF08B103B030BD9DF8043065F3E0
:100F000007138DF80430012301AA10212046FFF7B2
:100F10009DFFF0E730B583B004460D46012301AADA
:100F20001121FFF78AFF08B103B030BD9DF80430EE
:100F300065F343038DF80430012301AA11212046F3
:100F4000FFF784FFF0E730B583B004460D46012378
:100F500001AA1121FFF771FF08B103B030BD9DF860
:100F6000043065F307138DF80430012301AA112121
:100F70002046FFF76BFFF0E730B583B004460D461F
:100F8000012301AA1221FFF758FF08B103B030BDB9
:100F90009DF8043065F386138DF80430012301AA0F
:100FA00012212046FFF752FFF0E708B50A46012359
:100FB0001E21FFF742FF08BD10B582B00C46022388
:100FC00001AA2021FFF739FF9DF8052022809DF816
:100FD000043003EB0223238002B010BD10B582B0B1
:100FE0000C4606236A462221FFF727FF9DF80120C1
:100FF00022809DF8003003EB022323809DF803201C
:1010000062809DF8023003EB022363809DF8052087
:10101000A2809DF8043003EB0223A38002B010BD30
:1010200010B582B00C4606236A462821FFF705FF5B
:101030009DF8012022809DF8003003EB02232380DD
:101040009DF8032062809DF8023003EB0223638049
:101050009DF80520A2809DF8043003EB0223A380B5
:1010600002B010BD08B50A4601230F21FFF7E5FEC7
:1010700008BD10B582B00C46012301AA1221FFF76A
:10108000DCFE9DF80430C3F30003237002B010BDF2
:1010900030B583B004460D46012301AA1221FFF7A3
:1010A000CCFE08B103B030BD9DF8043065F3820377
:1010B0008DF80430012301AA12212046FFF7C6FE55
:1010C000F0E730B583B004460D46012301AA102194
:1010D000FFF7B3FE08B103B030BD9DF8043065F3EF
:1010E00000038DF80430012301AA10212046FFF7E8
:1010F000ADFEF0E730B583B005460C46012301AAEA
:101100001721FFF79AFE08B103B030BDC4F30012F7
:101110009DF8043062F3C3038DF80430DBB264F34E
:1011200046138DF80430DBB243F080038DF80430B1
:10113000DBB223F004038DF80430012301AA172148
:101140002846FFF783FEDFE730B585B005460C463D
:10115000012301AA1621FFF770FE08B105B030BDCA
:10116000C4F301139DF8042063F305128DF80420E5
:10117000E309D2B263F386128DF80420012301AA99
:1011800016212846FFF762FE0028E7D1012302AAB4
:1011900015212846FFF751FE0028DFD19DF80830C1
:1011A00064F301038DF80830012302AA15212846B3
:1011B000FFF74CFE0028D1D1012303AA13212846B2
:1011C000FFF73BFE0028C9D1C4F3C0019DF80C30E5
:1011D00061F341038DF80C30012303AA1321284643
:1011E000FFF734FEBAE730B583B004460D4601235D
:1011F00001AA1221FFF721FE08B103B030BD9DF80E
:10120000043065F3C3038DF80430012301AA1221D1
:101210002046FFF71BFEF0E7054B064A1A60002246
:101220005A609A60DA601A615A619A61704700BF29
:10123000D8020020002C014010B5094C002280216A
:10124000204600F078FE012000F0FAFC0122802107
:10125000204600F070FE012000F0F2FC002010BDDE
:101260000008024008B500F0EBFC08BD2DE9F04194
:101270000D4616461C460F4F00221021384600F03E
:101280005AFEDFF834804FF47A73324629464046DE
:1012900002F06DFC4FF47A73BDF8182021464046E9
:1012A00002F065FC01221021384600F044FE0020C7
:1012B000BDE8F0810000024080020020F0B583B05C
:1012C000044615461E468DF807100E4F00220821D1
:1012D000384600F030FE4FF47A7301220DF1070119
:1012E000204602F044FC4FF47A73324629462046E9
:1012F00002F03DFC01220821384600F01CFE0020CF
:1013000003B0F0BD000002402DE9F0410D46164645
:101310001C460F4F00221021384600F00CFEDFF86B
:1013200034804FF47A7332462946404602F01FFC5F
:101330004FF47A73BDF818202146404602F023FE90
:1013400001221021384600F0F6FD0020BDE8F081B2
:101350000000024080020020F0B583B0044615462C
:101360001E468DF80710CBB263F07F038DF807306F
:101370000E4F00220821384600F0DDFD4FF47A734D
:1013800001220DF10701204602F0F1FB4FF47A73C0
:1013900032462946204602F0F6FD01220821384651
:1013A00000F0C9FD002003B0F0BD00BF0000024006
:1013B0002DE9F0418AB0002405940694079408941E
:1013C000099400943D4B1A6B42F080021A631A6B29
:1013D00002F080020092009A01941A6B42F004021B
:1013E0001A631A6B02F004020192019A02941A6BBA
:1013F00042F001021A631A6B02F001020292029A91
:1014000003941A6B42F008021A631A6B02F0080286
:101410000392039A04941A6B42F002021A631B6B44
:1014200003F002030493049B254D2246872128469E
:1014300000F081FD234E22461C21304600F07BFD4A
:1014400087230593012706970794089405A9284642
:1014500000F074FC482305934FF00208CDF8188083
:10146000079408940F23099305A9284600F066FC09
:10147000CDF814800694079405A9304600F05EFC70
:101480001C23059306970794089405A9304600F09D
:1014900055FC102305930694079405A9284600F0EF
:1014A0004DFC202305934FF488130693079405A958
:1014B000284600F043FC0AB0BDE8F0810038024045
:1014C000000802400000024010B514466FF07F4350
:1014D00092B2024802F045FF204610BD38020020BB
:1014E00072B6FEE708B50A480A4B03604FF4E133D1
:1014F000436000238360C36003610C224261836107
:10150000C36102F0FEFE00B908BDFFF7E9FF00BFAE
:10151000380200200010014000B585B019481A4B70
:1015200003601A4B4360002383608222C2604FF441
:101530008042026143618361C361036200F0A6FEE1
:1015400088B94FF47A73022282210E4801F02EF8F6
:1015500058B14FF47A7320220D490E4802F001FF72
:1015600005B05DF804FBFFF7BBFF4FF47A730293FD
:10157000012301930022009204228221014800F0FD
:1015800063FFEDE75C03002000540040A0860100EB
:10159000089600083802002008B50D480D4B03607E
:1015A0004FF48273436000238360C360036143612F
:1015B0004FF400728261C3610362436283620A2353
:1015C000C36202F075FA00B908BDFFF789FF00BFDA
:1015D000800200200030014000B595B0302200218B
:1015E00008A804F0A4FA0023039304930593069338
:1015F000079301931F4A116C41F080511164126CE2
:1016000002F080520192019A02931B4A116841F440
:1016100080411160126802F480420292029A022212
:10162000089201210B9110210C910E920F93082327
:1016300010938023119312920623139308A801F0AC
:1016400095F998B90F23039302230493002305937C
:101650004FF4A05306934FF480530793042103A83B
:1016600001F0D4FB20B915B05DF804FBFFF738FF9B
:10167000FFF736FF00380240007000402DE9F047C8
:101680009AB000F0B1FAFFF7A7FFFFF791FEFFF75E
:10169000C3FDFFF727FFFFF73FFFFFF785FBFFF7CE
:1016A0007BFFC14B1693C14B1793C14B1993C14A92
:1016B0001192C14A1292C14A13921593C04B1493CE
:1016C0004FF47A70FFF7CEFD012116A8FFF78BFDCE
:1016D000012116A8FFF7DCFCBA4C214616A8FFF73B
:1016E000C1FC23786A2B00D0FEE7B74C214616A830
:1016F000FFF7BFFC2378002BF7D1012116A8FFF7D5
:101700003BFC0A2116A8FFF7ECFB0A2116A8FFF7FD
:101710001AFC002116A8FFF7CBFB062116A8FFF73D
:10172000F9FB012116A8FFF7CCFC032116A8FFF74F
:10173000E1FC0B2116A8FFF707FD4FF4FA60FFF755
:1017400091FD0024ADF83C40ADF83E40ADF840407E
:1017500002E0B4F57A7F48DA0CA916A8FFF725FC59
:101760009DF8303013F0010FF3D0984D00232B601B
:10177000AB80294616A8FFF753FCB5F90000FFF728
:101780006FFBBDF93C3007EE903AF8EEE77A77EE62
:10179000807AFDEEE77A17EE903AADF83C30B5F975
:1017A0000200FFF75DFBBDF93E3007EE903AF8EE20
:1017B000E77A77EE807AFDEEE77A17EE903AADF8A9
:1017C0003E30B5F90400FFF74BFBBDF9403007EEA2
:1017D000903AF8EEE77A77EE807AFDEEE77A17EE48
:1017E000903AADF840300134B3E7BDF93C304FF4E6
:1017F0007A7293FBF2F3ADF83C30BDF93E3093FBC7
:10180000F2F3ADF83E30BDF9403093FBF2F3ADF8A2
:1018100040300024ADF83440ADF83640ADF83840E3
:1018200002E0B4F57A7F48DA0CA916A8FFF7BDFBF1
:101830009DF8303013F0020FF3D0654D00232B607C
:10184000AB80294616A8FFF7C9FBB5F90000FFF7E2
:1018500013FBBDF9343007EE903AF8EEE77A77EEF5
:10186000807AFDEEE77A17EE903AADF83430B5F9AC
:101870000200FFF701FBBDF9363007EE903AF8EEB3
:10188000E77A77EE807AFDEEE77A17EE903AADF8D8
:101890003630B5F90400FFF7EFFABDF9383007EE3E
:1018A000903AF8EEE77A77EE807AFDEEE77A17EE77
:1018B000903AADF838300134B3E7BDF934304FF425
:1018C0007A7293FBF2F3ADF83430BDF9363093FB06
:1018D000F2F3ADF83630BDF9383093FBF2F3ADF8E2
:1018E00038300023ADF83430ADF83630ADF838304C
:1018F000ABE0364900240C608C8016A8FFF790FB03
:1019000021E0324B33F91400FFF7AAFA1AAB03EBCC
:10191000440333F92C3C07EE903AF8EEE77A70EE88
:10192000677A9FED2C7A67EE877A2B4B03EB840363
:1019300093ED007ADFED296A27EE267A77EE877A33
:10194000C3ED007A0134022CDBDD88E0204900245D
:101950000C608C8016A8FFF741FB21E01C4B33F98B
:101960001400FFF789FA1AAB03EB440333F9343C54
:1019700007EE903AF8EEE77A70EE677A9FED157A07
:1019800067EE877A164B03EB840393ED007ADFED65
:10199000136A27EE267A77EE877AC3ED007A013450
:1019A000022CDBDD61E000BFBD1200085913000806
:1019B000800200206D120008091300083912000887
:1019C000000002401D0200201C0200203002002006
:1019D00028020020CDCCCC3D100200206666663F78
:1019E000040200202B4B5E689F682B4AD2F80080CF
:1019F000D2F80490D2F808A01868FEF785FD0446D6
:101A00000D46264B1868FEF77FFDCDE90A015046CA
:101A1000FEF77AFDCDE908014846FEF775FDCDE9F0
:101A200006014046FEF770FDCDE904013846FEF799
:101A30006BFDCDE902013046FEF766FDCDE9000100
:101A400022462B46164803F0FBFF0CA916A8FFF709
:101A5000ACFA9DF8303013F0010F7FF44AAF9DF8D7
:101A6000303013F0020F7FF471AF9DF8303013F077
:101A7000040FB7D00B4C00232380214616A8FFF794
:101A80009BFAB4F90000FFF703FA044B83ED000A58
:101A9000A8E700BF1002002004020020200200205E
:101AA000209600082402002008B5074B01221A7076
:101AB000FFF74AF920B9044A137803F0FE031370C4
:101AC000014B187808BD00BF0000002010B5044687
:101AD000074B01221A70FFF759F910B1044B18781F
:101AE00010BD2046FFF7E0FF014B1870F6E700BF7E
:101AF0000000002008B5FFF7D7FF08BD08B508466D
:101B000011461A464FF0FF33FFF7FEF830B9FFF7E2
:101B10001BF903460028FAD1184608BD0123FBE74C
:101B200008B5084611461A464FF0FF33FFF7FCF898
:101B300030B9FFF709F903460028FAD1184608BD65
:101B40000123FBE730B589B0134B187810F001047E
:101B50001BD1154603291CD8DFE801F002040A1046
:101B60000C4613E06846FFF7F9F8069B2B600DE082
:101B70006846FFF7F3F8079B2B8007E06846FFF7FE
:101B8000EDF8079B5B0A2B6000E00324204609B0B8
:101B900030BD0424FAE700BF0000002010B5044661
:101BA0000E4B1A784FF47A73B3FBF2F30C4A1068B9
:101BB000B0FBF3F000F0AEF868B90F2C01D90120AA
:101BC0000AE0002221464FF0FF3000F093F8054B69
:101BD0001C60002000E0012010BD00BF01000020BB
:101BE000080000200400002008B50B4B1A6842F4DE
:101BF00000721A601A6842F480621A601A6842F42D
:101C000080721A60032000F063F80F20FFF7C6FF10
:101C100000F096FD002008BD003C0240034A116818
:101C2000034B1B780B441360704700BFB0030020C8
:101C300001000020014B1868704700BFB00300206E
:101C400038B50446FFF7F6FF0546B4F1FF3F02D072
:101C5000044B1B781C44FFF7EDFF401BA042FAD356
:101C600038BD00BF01000020002808DB0901C9B20F
:101C700000F1604000F5614080F80013704700F00B
:101C80000F000901C9B2014B1954704714ED00E06F
:101C900000B500F00700C0F1070CBCF1040F28BF2D
:101CA0004FF0040C031D062B0FD9C31E4FF0FF3E4F
:101CB0000EFA0CF021EA000199400EFA03FE22EA26
:101CC0000E0241EA02005DF804FB0023EEE700008B
:101CD000074AD36823F4E0631B041B0C000200F4E2
:101CE000E060034343F0BF6343F40033D3607047C5
:101CF00000ED00E010B50446054BD868C0F30220A3
:101D0000FFF7C6FF01462046FFF7AEFF10BD00BF3C
:101D100000ED00E00138B0F1807F0BD24FF0E023FE
:101D20005861054AF02182F82310002098610722AB
:101D30001A6170470120704700ED00E000230F2B6F
:101D400000F2E98070B582B065E085684FEA430E25
:101D5000032404FA0EF425EA0405CC6804FA0EF410
:101D60002C438460446824EA02044A68C2F30012E7
:101D70009A40224342605CE0DC08083450F824209A
:101D800003F00705AD004FF00F0E0EFA05FE22EA34
:101D90000E0E0A69AA4042EA0E0240F824205CE0D6
:101DA000072200E0002202FA0EF22A4302345A4DC2
:101DB00045F82420594A94686FEA0C0224EA0C057D
:101DC0004E6816F4801F01D04CEA0405534CA56000
:101DD000E46802EA04054E6816F4001F01D04CEADC
:101DE00004054E4CE560646802EA04054E6816F48A
:101DF000003F01D04CEA0405484C6560246822404D
:101E00004D6815F4803F01D04CEA0402434C226037
:101E100001330F2B7DD801229A400C6804EA020C92
:101E200032EA0404F4D14C6804F00304013C012CB0
:101E30008BD94A6802F00302032A09D0C4685D0006
:101E40000322AA4024EA02048A68AA402243C2600C
:101E50004A6802F00302022A8ED004684FEA430E59
:101E6000032202FA0EF224EA02044A6802F0030294
:101E700002FA0EF2224302604A6812F4403FC7D0D1
:101E800000220192264A546C44F480445464526CFB
:101E900002F480420192019A9C08A51C1E4A52F845
:101EA000255003F0030E4FEA8E0E0F2202FA0EF2B7
:101EB00025EA02051B4A90423FF474AF02F58062A6
:101EC00090421AD002F58062904218D002F58062EA
:101ED000904216D002F58062904214D002F58062E2
:101EE000904212D002F58062904210D002F58062DA
:101EF00090423FF455AF082255E7012253E70222F2
:101F000051E703224FE704224DE705224BE7062263
:101F100049E702B070BD704700380140003C014005
:101F200000380240000002400369194201D001203C
:101F30007047002070470AB18161704709048161D0
:101F4000704703685A6912F4806F01D1002070470E
:101F50006FF480625A6100230363202280F83D20E1
:101F600080F83E30026C42F00402026480F83C309B
:101F7000012070472DE9F04106460C461746984669
:101F80003BE0FFF757FE069BC01A404502D8B8F168
:101F9000000F32D1012D18D033689B6924EA030366
:101FA0009BB2B3FA83F35B099F4226D100233363CC
:101FB000202286F83D2086F83E30326C42F0200226
:101FC000326486F83C30012027E033685B6924EAFC
:101FD00003039BB2B3FA83F35B09E5E733685B69FC
:101FE00024EA030C1FFA8CFCBCFA8CFC4FEA5C1C44
:101FF000674511D1B8F1FF3FC3D1C4F30745012DA7
:10200000ECD033689B6924EA030C1FFA8CFCBCFA01
:102010008CFC4FEA5C1CEBE70020BDE8F0812DE969
:10202000F84305460E469046994653E01A6842F436
:1020300000721A602B686FF480625A6100232B6370
:10204000202285F83D2085F83E302A6C42F00402BB
:102050002A6485F83C3001204AE0FFF7EBFDA0EB55
:102060000900404502D8B8F1000F33D1012F17D035
:102070002B689B6926EA03039BB2003B18BF012330
:1020800043B300232B63202285F83D2085F83E30A2
:102090002A6C42F020022A6485F83C30012027E0B7
:1020A0002B685B6926EA03039BB2003B18BF012340
:1020B000E6E72B689C6926EA0404A4B2003C18BF3A
:1020C0000124A4B12B685A6912F4806FAED1B8F123
:1020D000FF3FC2D1C6F30747012FEAD12B685C69E5
:1020E00026EA0404A4B2003C18BF0124E9E700205A
:1020F000BDE8F88370B504460D46164623685B6953
:1021000013F0800F21D12046FFF71BFFF8B9B5F17E
:10211000FF3FF3D0FFF78EFD801BA84201D8002DB2
:10212000ECD123685B6913F0800FE7D100232363B0
:10213000202284F83D2084F83E30226C42F02002B8
:10214000226484F83C30012000E0002070BD0120B2
:10215000FCE700002DE9F04385B004460D469146AA
:102160001F46DDF830800D9E0368196841F48071C8
:1021700019600096434600224FF00111FFF7FAFE66
:1021800060B9236805F0FE051D61334642462649C5
:102190002046FFF744FF68B1012008E023681B6870
:1021A00013F4807F02D04FF400732364032005B042
:1021B000BDE8F0830023039323685A6903929B6967
:1021C0000393039B324641462046FFF793FF30B905
:1021D000012F0FD123685FFA89F61E61E7E7236CB0
:1021E000042B01D00120E2E72268136843F4007356
:1021F0001360F7E723684FEA19221A613246414615
:102200002046FFF777FF20B923685FFA89F61E6141
:10221000CDE7236C042B01D00120C8E722681368A6
:1022200043F400731360F7E70200010070B5044641
:102230000D46164623685B6913F0040F21D1204632
:10224000FFF77FFEF8B9B5F1FF3FF3D0FFF7F2FCDF
:10225000801BA84201D8002DECD123685B6913F0E4
:10226000040FE7D100232363202284F83D2084F863
:102270003E30226C42F02002226484F83C3001207F
:1022800000E0002070BD0120FCE70000002800F005
:10229000CC8070B5044690F83D30002B77D02423D5
:1022A00084F83D302268136823F00103136022682C
:1022B000136843F4004313602268136823F4004357
:1022C000136000F059FE62685A4B9A4264D85A4B28
:1022D00098428CBF00230123002B40F0A88057496F
:1022E000A1FB00318B0C25686A6822F03F0242EAAC
:1022F00091426A6021680A6A22F03F0266684D4D89
:10230000AE424FD8013313430B622168CA6922F4ED
:102310004F4222F0FF026568464B9D424CD8431E57
:102320006D00B3FBF5F3013340F6FC70034278D047
:10233000C3F30B031A43CA6121680B6823F0C0037F
:10234000E269206A024313430B6021688B6823F41F
:10235000034323F0FF032269E068024313438B60C9
:102360002168CB6823F0FF036269A069024313432D
:10237000CB602268136843F00103136000202064DF
:10238000202384F83D30206384F83E0070BD80F83F
:102390003C3000F0F1F982E7294B98428CBF0023D2
:1023A000012399E74FF4967505FB03F3254DA5FB33
:1023B00003539B090133A6E7A668BEB9431E05EB8C
:1023C000450CB3FBFCF30133C3F30B03B3FA83F304
:1023D0005B0943BBC6B9431E05EB4505B3FBF5F3EB
:1023E0000133C3F30B0343F40043A3E7431E05EBA0
:1023F000850C0CEB8C0CB3FBFCF30133C3F30B0328
:10240000B3FA83F35B09E4E7431E05EB850505EBAF
:102410008505B3FBF5F30133C3F30B0343F44043EA
:1024200088E7042386E7012384E701207047012021
:10243000ACE700BFA08601007F841E0083DE1B4343
:10244000FF083D00D34D62102DE9F04383B00446F0
:102450000F46904699460C9EFFF7ECFB054694F814
:102460003D00C0B2202803D0022003B0BDE8F083B5
:102470000095192301224B492046FFF77BFD0028D8
:1024800040F0898094F83C30012B00F086800123D5
:1024900084F83C3023681A6812F0010F03D11A68DF
:1024A00042F001021A602268136823F4006313608B
:1024B000212384F83D30402384F83E3000232364F8
:1024C0000A9B6362BDF82C306385638D2385364B90
:1024D000E362019500964B46424639462046FFF797
:1024E00039FE00285BD1238D002B35D02A4631469A
:1024F0002046FFF7FFFD20BB626A236812781A614D
:10250000626A531C6362218D013989B22185638D12
:102510009BB2013B9BB263852368586910F0040F9E
:10252000E1D00029DFD052781A61636A0133636217
:10253000238D013B2385638D9BB2013B9BB2638559
:10254000D1E7236C042B01D001208EE722681368A9
:1025500043F400731360F7E72A4631462046FFF73D
:1025600065FE50B1236C042B01D001207DE7226869
:10257000136843F400731360F7E72268136843F4A9
:1025800000731360202384F83D30002384F83E302C
:1025900084F83C3069E7022067E7022065E7012004
:1025A00063E700BF020010000000FFFF2DE9F043C9
:1025B00085B00446884691461D46FFF73BFB94F8DC
:1025C0003D30DBB2202B03D0022005B0BDE8F08304
:1025D000064600901923012257492046FFF7CAFCFE
:1025E000002840F0A08094F83C30012B00F09D8042
:1025F000012384F83C3023681A6812F0010F03D1DC
:102600001A6842F001021A602268136823F400631A
:102610001360242384F83D3000272764474BE3628E
:1026200040E023681B6813F4807F02D04FF40073EE
:1026300023640320C9E7A02384F83D30226853694E
:10264000C3F340035269C2F3802294F83DC05FFA9D
:102650008CFCBCF1A00F09D043B93AB9FFF7EAFAF4
:10266000801BA842E7D8002DE8D1E4E7202384F8B6
:102670003D3023685A6912F0020F31D11A6842F4D2
:1026800000721A6023686FF480625A610096192301
:10269000012229492046FFF76DFC002849D1013766
:1026A0004F4538D22268136843F480731360009654
:1026B0002B4600224FF001112046FFF75BFC00285B
:1026C000AFD1236808F0FE021A61FFF7B3FA06469D
:1026D00022685369C3F340035269C2F38022B4E70E
:1026E0001A6842F400721A600023039323685A693F
:1026F00003929B690393039B0096192301220E49C1
:102700002046FFF737FC90B9202384F83D300023A2
:1027100084F83C3059E7202384F83D30002384F8C6
:102720003C30012051E702204FE702204DE7012015
:102730004BE7012049E700BF020010000000FFFF47
:1027400082B0002100910B4B5A6C42F480425A64D3
:102750005A6C02F480420092009A01911A6C42F085
:1027600080521A641B6C03F080530193019B02B0EA
:10277000704700BF0038024030B589B00023039392
:1027800004930593069307930268144B9A4201D071
:1027900009B030BD00250195114C236B43F00203B5
:1027A0002363236B03F002030193019BC023039374
:1027B00012230493032306930423079303A90948D0
:1027C000FFF7BCFA0295236C43F400132364236CD7
:1027D00003F400130293029BDAE700BF00540040A9
:1027E0000038024000040240F0B589B00023039392
:1027F00004930593069307930268204B9A4201D0F5
:1028000009B0F0BD0024009403F586335A6C42F4FD
:1028100000625A645A6C02F400620092009A0194B9
:102820001A6B42F004021A631A6B02F0040201925E
:10283000019A02941A6B42F008021A631B6B03F0B0
:1028400008030293029B4FF48853039302270497D3
:10285000032606960C2507950DEB05010848FFF7A2
:102860006DFA0423039304970594069607950DEBE0
:1028700005010448FFF762FAC2E700BF002C0140DF
:1028800000080240000C024000B589B00023039309
:1028900004930593069307930268154B9A4202D05E
:1028A00009B05DF804FB0021019103F584335A6CF3
:1028B00042F480525A645A6C02F480520192019A96
:1028C00002911A6B42F001021A631B6B03F00103C1
:1028D0000293029BE02303930223049303230693B2
:1028E0000523079303A90348FFF728FAD8E700BF99
:1028F000003001400000024000B589B0002303937E
:102900000493059306930793026803F1804303F54C
:1029100088339A4202D009B05DF804FB002101918E
:1029200003F594335A6C42F010025A645A6C02F068
:1029300010020192019A02911A6B42F001021A638D
:102940001B6B03F001030293029B4FF4C0630393DC
:1029500002230493032306930723079303A9024842
:10296000FFF7ECF9D7E700BF00000240002800F0B5
:10297000E08170B582B00446036813F0010F3BD0CC
:102980009F4B9B6803F00C03042B2CD09C4B9B6843
:1029900003F00C03082B21D06368B3F5803F4FD0C0
:1029A000B3F5A02F52D0964B1A6822F480321A60E9
:1029B0001A6822F480221A606368002B50D0FFF757
:1029C00039F905468E4B1B6813F4003F14D1FFF70D
:1029D00031F9401B6428F5D90320B1E1884B5B68CD
:1029E00013F4800FD8D0864B1B6813F4003F03D03C
:1029F0006368002B00F09F81236813F0020F54D00E
:102A00007F4B9B6813F00C0F3ED07D4B9B6803F00F
:102A10000C03082B33D0E368002B68D0794B0122DC
:102A20001A60FFF707F90546754B1B6813F0020F94
:102A300054D1FFF7FFF8401B0228F5D903207FE1AE
:102A40006F4A136843F480331360B5E76C4B1A6820
:102A500042F480221A601A6842F480321A60ABE7AE
:102A6000FFF7E8F80546664B1B6813F4003FC3D038
:102A7000FFF7E0F8401B6428F5D9032060E1604BC4
:102A80005B6813F4800FC6D15D4B1B6813F0020F17
:102A900003D0E368012B40F05081594A136823F0BA
:102AA000F803216943EAC1031360236813F0080F98
:102AB00042D063696BB3534B0122C3F8802EFFF7FA
:102AC000B9F805464E4B5B6F13F0020F34D1FFF798
:102AD000B1F8401B0228F5D9032031E1484A1368B8
:102AE00023F0F803216943EAC1031360DDE7454B96
:102AF00000221A60FFF79EF80546414B1B6813F051
:102B0000020FD2D0FFF796F8401B0228F5D9032018
:102B100016E13C4B0022C3F8802EFFF78BF80546E8
:102B2000374B5B6F13F0020F06D0FFF783F8401BA3
:102B30000228F5D9032003E1236813F0040F77D0AE
:102B40002F4B1B6C13F0805F33D1002301932C4B70
:102B50001A6C42F080521A641B6C03F0805301938C
:102B6000019B0125284B1B6813F4807F23D0A368A9
:102B7000012B34D0052B38D0214B1A6F22F00102E3
:102B80001A671A6F22F004021A67A368002B3DD05F
:102B9000FFF750F806461A4B1B6F13F0020F46D191
:102BA000FFF748F8801B41F288339842F3D903209D
:102BB000C6E00025D6E7144A136843F48073136017
:102BC000FFF738F80646104B1B6813F4807FCED110
:102BD000FFF730F8801B0228F5D90320B0E0084A3F
:102BE000136F43F001031367CFE7054B1A6F42F0F1
:102BF00004021A671A6F42F001021A67C5E700BFA4
:102C0000003802400000474200700040FFF712F811
:102C10000646524B1B6F13F0020F08D0FFF70AF85D
:102C2000801B41F288339842F3D9032088E0EDB944
:102C3000A369002B00F08380484A926802F00C02DE
:102C4000082A51D0022B17D0454B00221A66FEF7F6
:102C5000F1FF0446414B1B6813F0007F42D0FEF7A2
:102C6000E9FF001B0228F5D9032069E03B4A136CF9
:102C700023F080531364DBE7394B00221A66FEF71A
:102C8000D9FF0546354B1B6813F0007F06D0FEF7D1
:102C9000D1FF401B0228F5D9032051E0E369226AE5
:102CA0001343626A43EA8213A26A5208013A43EA72
:102CB0000243E26A43EA0263284A5360284B012236
:102CC0001A66FEF7B7FF0446244B1B6813F0007F1B
:102CD00006D1FEF7AFFF001B0228F5D903202FE035
:102CE00000202DE000202BE0012B2BD01B4B5B683C
:102CF00003F48001E269914226D103F03F02216A88
:102D00008A4223D1616A47F6C0721A40B2EB811F32
:102D10001ED103F44031A26A5208013AB1EB024FCE
:102D200018D103F07063E26AB3EB026F14D1002094
:102D300006E001207047012002E0012000E00020B1
:102D400002B070BD0120FBE70120F9E70120F7E7A1
:102D50000120F5E70120F3E70120F1E70038024008
:102D60000000474208B5264B9B6803F00C03042B78
:102D700041D0082B41D1224B5A6802F03F025B68D8
:102D800013F4800F12D01E4B5968C1F388111D48EF
:102D90000023A1FB0001FDF757FF194B5B68C3F34C
:102DA000014301335B00B0FBF3F008BD144B5868DE
:102DB000C0F388104FEA401CBCEB000C6EEB0E0E0B
:102DC0004FEA8E1343EA9C634FEA8C11B1EB0C017E
:102DD00063EB0E03DB0043EA5173C90011EB000CF7
:102DE00043F10003990200234FEA8C2041EA9C51F1
:102DF000FDF72AFFD1E70348D7E70348D5E700BF2F
:102E00000038024040787D010024F400002800F0E2
:102E10009B8070B50D4604464F4B1B6803F00703BB
:102E20008B4208D2CBB24C4A1370136803F00703ED
:102E30008B4240F08B80236813F0020F17D013F001
:102E4000040F04D0454A936843F4E0539360236829
:102E500013F0080F04D0414A936843F46043936031
:102E60003E4A936823F0F003A1680B439360236804
:102E700013F0010F32D06368012B21D09A1E012A72
:102E800025D9364A126812F0020F61D033498A6898
:102E900022F0030213438B60FEF7CCFE06462F4B55
:102EA0009B6803F00C036268B3EB820F16D0FEF749
:102EB000C1FE801B41F288339842F0D9032042E0E2
:102EC000264A126812F4003FE0D101203BE0234A79
:102ED000126812F0007FD9D1012034E01E4B1B682C
:102EE00003F00703AB4207D9EAB21B4B1A701B6809
:102EF00003F00703AB422DD1236813F0040F06D073
:102F0000164A936823F4E053E1680B439360236807
:102F100013F0080F07D0114A936823F46043216926
:102F200043EAC1039360FFF71DFF0C4B9B68C3F39B
:102F300003130B4AD35CD8400A4B18600A4B18683D
:102F4000FEF72CFE002070BD012070470120FAE73B
:102F50000120F8E70120F6E7003C0240003802407B
:102F6000709600080800002004000020014B18683B
:102F7000704700BF0800002008B5FFF7F7FF044BBB
:102F80009B68C3F38223034AD35CD84008BD00BFCB
:102F9000003802406896000808B5FFF7E7FF044BC9
:102FA0009B68C3F34233034AD35CD84008BD00BFDB
:102FB000003802406896000870B582B004460023CD
:102FC0000193006801F0ADFA054610B1284602B041
:102FD00070BD206801F06EFD38B90123A364A36CB5
:102FE000012B0BD02E46284614E00023A364206852
:102FF00001F097FA0028F2D00546E7E700212068A3
:1030000001F0F6FB0028EDD04FF08055DEE7019B84
:1030100001330193019A4FF6FE739A4213D896B981
:103020000021206801F0E4FBE0B91249206801F0BA
:103030008DFC0646C0B90021206801F05DFAC30F7F
:10304000E5D01E46E3E7019A4FF6FE739A420ED88A
:1030500010F0804302D001236364B7E7002262646A
:103060001D46B3E70546B1E74FF08055AEE74FF098
:103070008075ABE7000010C170B581B104460E4603
:10308000016D0904006801F0CBFB054608B1284634
:1030900070BD0021206801F02FFA3060F7E74FF093
:1030A0000065F4E72DE9F04F87B005460C4616465B
:1030B0009B46DDF840A0FEF7BDFD002C36D08146D2
:1030C00095F83470FFB2012F40F009810023AB6303
:1030D00006EB0B03EA6D93422ED8032385F83430B8
:1030E0002B680022DA626B6C012B00D076024FF065
:1030F000FF3300934FEA4B23019390230293022363
:10310000039300230493012305936946286801F083
:10311000F6F9BBF1010F14D902232B63314628685D
:1031200001F0ECFAA0B9DDF8048038E0AB6B43F0B5
:103130000063AB630127D7E0AB6B43F00073AB6375
:10314000D2E001232B633146286801F0BFFAE9E79A
:103150002B68674A9A63AB6B0343AB63012385F823
:10316000343000232B63BFE0286801F0A2F92070FF
:10317000C0F307236370C0F30743A370000EE07031
:103180000434A8F104080136072EEDD9FEF752FDEC
:10319000A0EB0900504510D2BAF1000F0DD02868FD
:1031A000466B40F22A331E4015D1436B13F4004F97
:1031B000ECD0B8F1000FE9D0E6E72B684C4A9A63EF
:1031C000AB6B43F00043AB63012385F8343000233D
:1031D0002B63032788E0436B13F4807F05D0BBF19A
:1031E000010F02D96B6C032B3CD12B685A6B12F088
:1031F000080F48D15A6B12F4007F44D15A6B12F079
:10320000020F4CD15A6B12F0200F54D12868436B37
:1032100013F4001F5BD0B8F1000F58D001F049F94A
:103220002070C0F307236370C0F30743A370000E40
:10323000E0700434A8F10408FEF7FCFCA0EB0900E0
:10324000504502D2BAF1000FE0D12B68284A9A63A8
:10325000AB6B43F00043AB63012385F834300023AC
:103260002B6341E001F092FA03460028BDD02A68A2
:103270001F499163AA6B1343AB63012385F8343074
:1032800000232B6330E01A4A9A63AB6B43F00803C8
:10329000AB63012385F8343000232B6324E0144A08
:1032A0009A63AB6B43F00203AB63012385F83430C0
:1032B00000232B6318E00E4A9A63AB6B43F02003A4
:1032C000AB63012385F8343000232B630CE040F21C
:1032D0003A538363012385F83430002704E0AB6B55
:1032E00043F00053AB630127384607B0BDE8F08FC9
:1032F000FF0540002DE9F04F8BB005460C46164601
:103300009B46DDF850A0FEF795FC002C37D0804698
:1033100095F83470FFB2012F40F0E6800023AB63D4
:1033200006EB0B03EA6D93422FD8032385F8343064
:103330002B680022DA626B6C012B00D076024FF012
:10334000FF3304934FEA4B23059390230693002306
:10335000079308930123099304A9286801F0CFF883
:10336000BBF1010F16D920232B633146286801F0E9
:10337000F5F90190019BABB9DDF8149040E0AB6B1F
:1033800043F00063AB630127B3E0AB6B43F0007322
:10339000AB63AEE010232B633146286801F0C6F919
:1033A0000190E7E72B68554A9A63AB6B019A134388
:1033B000AB63012385F8343000232B6399E0237835
:1033C0000393627843EA02230393A27843EA024319
:1033D0000393E27843EA026303930434A9F10409F6
:1033E00003A9286801F068F80136072EE7D9FEF72F
:1033F00021FCA0EB0800504510D2BAF1000F0DD00F
:103400002868466B40F21A331E4015D1436B13F403
:10341000804FECD0B9F1000FE9D0E6E72B68374ACE
:103420009A63AB6B019A1343AB63012385F8343085
:1034300000232B6303275CE0436B13F4807F05D0EC
:10344000BBF1010F02D96B6C032B1CD12B685A6B9B
:1034500012F0080F28D15A6B12F4007F24D15A6B56
:1034600012F0020F2CD15A6B12F0100F34D0234AF5
:103470009A63AB6B43F01003AB63012385F83430E0
:1034800000232B6335E001F081F903460028DDD0ED
:103490002A681A499163AA6B1343AB63012385F829
:1034A000343000232B6324E0144A9A63AB6B43F05F
:1034B0000803AB63012385F8343000232B6318E045
:1034C0000E4A9A63AB6B43F00203AB63012385F8AA
:1034D000343000232B630CE040F23A529A6301230C
:1034E00085F83430002704E0AB6B43F00053AB6346
:1034F000012738460BB0BDE8F08F00BFFF05400044
:103500000346426E920F0A70426EC2F383624A70A3
:1035100090F8672002F003028A7090F86620CA7063
:1035200090F865200A7190F864204A71826E120D3D
:10353000CA80B0F86A2002F00F020A72826EC2F3EB
:10354000C0324A72826EC2F380328A72826EC2F3D5
:103550004032CA72826EC2F300320A7300224A738A
:10356000426C002A40F08680806E40F6FC7202EACF
:103570008002D86E42EA90720A61DA6EC2F3C262C9
:103580000A7593F86F2002F007024A75DA6EC2F3EB
:1035900042528A75DA6EC2F38242CA75DA6EC2F39B
:1035A000C2320A760A6901325A65087E00F00700C5
:1035B000023082405A6591F808C00CF00F0C0120CF
:1035C00000FA0CF09865400A00FB02F2DA654FF44D
:1035D00000721A66DA6EC2F380324A76DA6EC2F38D
:1035E000C6128A76DA6E02F07F02CA761A6FD20F9E
:1035F0000A771A6FC2F341724A771A6FC2F3826276
:103600008A771A6FC2F38352CA771A6FC2F3405295
:1036100081F82020002081F82100B3F8722002F008
:10362000010281F822201A6FC2F3C03281F82320F0
:103630001A6FC2F3803281F824201A6FC2F340322D
:1036400081F825201A6FC2F3003281F826201A6F04
:10365000C2F3812281F827201A6FC2F3012281F878
:1036600028201B6FC3F3460381F82930012381F81A
:103670002A307047012A11D1826E120402F47C12A2
:10368000B0F86E0002430A610A69013292025A657B
:10369000DA654FF400729A651A669BE7026805497D
:1036A0009163826B42F080528263012083F8340080
:1036B000704700BFFF05400070B590B0044601237D
:1036C000ADF81230006800F000FF00286CD0636C89
:1036D000032B45D1636C032B5DD1636C032B1DD091
:1036E000BDF8121021650904206801F0F4F80546C0
:1036F00000285BD10021206800F0FEFE60660421F6
:10370000206800F0F9FEA0660821206800F0F4FEB1
:10371000E0660C21206800F0EFFE2067042120689D
:1037200000F0EAFE000DE06405A92046FFF7E8FE80
:1037300000283ED1226D12040023206801F040F8D9
:10374000054698BB234653F8106B93E807008DE8B5
:103750000700043494E80E00304600F091FE25E0A6
:10376000206801F0A3F8054600BB0021206800F0A6
:10377000C3FE60670421206800F0BEFEA067082138
:10378000206800F0B9FEE0670C21206800F0B4FE6C
:10379000C4F880009EE70DF11201206801F040F9A5
:1037A0000546002899D001E04FF08065284610B00A
:1037B00070BD4FF08055F9E770B58AB0044600231C
:1037C00004930593069307930893762309930AAB12
:1037D00013E907008DE8070004AB0ECB206800F06A
:1037E0004FFE18B1012528460AB070BD05461A4E95
:1037F0000023C6F8A030206800F063FE0123C6F85D
:10380000A0300220FEF71CFA2046FFF7D5FB30B1AE
:10381000012584F83450A36B0343A363E3E72046F8
:10382000FFF74AFF30B1012584F83450A36B0343FE
:10383000A363D8E74FF40071206800F02FFF002841
:10384000D1D0236805499963A36B0343A363012582
:1038500084F83450C7E700BF00802542FF054000D0
:10386000A8B110B5044690F8343063B1032384F84E
:1038700034302046FFF7A0FF58B9A063206301232E
:1038800084F8343010BD0377FEF7AEFFEEE7012079
:1038900070470120F6E7436C0B60836C4B60C36C90
:1038A0008B60036DCB60436D0B61836D4B61C36DAA
:1038B0008B61036ECB610020704710B582B0044667
:1038C0000023019301A9FFF7D7FB10B1A36B0343BA
:1038D000A3630198C0F3432002B010BD2DE9F04767
:1038E00082B00546884617461E46FEF7A3F90A9B96
:1038F0001B1A03EB0609FEF79DF98246284B1B684D
:10390000C3F3CB3309FB03F301932B689C6838EABC
:1039100004040CBF01230023BB423DD0B6F1FF3F9E
:10392000F3D0FEF787F9A0EB0A00484507D2019AC9
:1039300002B14A46019B013B01939146E5E72A68A3
:10394000536823F0E00353606B68B3F5827F0BD0BC
:10395000AB6AB3F5005F14D0012385F85130002322
:1039600085F85030032018E0AB68B3F5004F02D063
:10397000B3F5806FECD12A68136823F0400313601D
:10398000E6E72A68136823F4005313602A68136873
:1039900043F400531360DFE7002002B0BDE8F08776
:1039A0000800002070B584B004460D46164600920B
:1039B0000B4601220221FFF791FFD0B9174B1B687C
:1039C000174AA2FB03235B0D4FF47A7202FB03F349
:1039D00003936368B3F5827F11D0039B3BB1039BD4
:1039E000013B039323689B6813F0800FF5D104B06B
:1039F00070BD636D43F0200363650320F7E7009615
:103A00002B46002280212046FFF768FF0028EED0D9
:103A1000636D43F0200363650320E8E7080000209E
:103A2000819F5E1610B582B004460B464168B1F521
:103A3000827F14D06168B1F5827F2AD1A168B1F587
:103A4000806F19D00092002280212046FFF746FFA8
:103A500030B3636D43F020036365032020E0816889
:103A6000B1F5004F02D0B1F5806FE3D12068016855
:103A700021F040010160DDE7009200220121204693
:103A8000FFF72CFF60B1636D43F0200363650320F3
:103A900006E00092002201212046FFF71FFF08B92F
:103AA00002B010BD636D43F0200363650320F7E7A8
:103AB00000285AD010B50446436A33B94368B3F5B9
:103AC000827F05D00023C36102E0002303614361CC
:103AD0000023A36294F85130002B40D0022384F8D5
:103AE00051302268136823F040031360636803F4C5
:103AF0008273A26802F404421343E26802F4006293
:103B00001343226902F002021343626902F00102C8
:103B10001343A26902F400721343E26902F038020F
:103B20001343226A02F080021343A26A02F4005295
:103B3000216813430B60638B03F00403626A02F095
:103B40001002216813434B602268D36923F4006399
:103B5000D36100206065012384F8513010BD84F8E2
:103B600050302046FEF790FEB8E7012070472DE95F
:103B7000F04383B00446894690461D46FEF75AF846
:103B800094F85160F6B2012E40F0CC800746B9F1AE
:103B9000000F00F0C880B8F1000F00F0C48094F866
:103BA0005030012B00F0C380012384F850300323F0
:103BB00084F8513000236365C4F83090A4F8348051
:103BC000A4F83680A363A387E38763642364A368B0
:103BD000B3F5004F1ED023681A6812F0400F03D1CE
:103BE0001A6842F040021A60E368B3F5006F1CD017
:103BF000636813B1B8F1010F5FD1226B23681278AB
:103C00001A73236B01332363E38E9BB2013B9BB298
:103C1000E38652E02268136823F0400313602268B1
:103C2000136843F480431360D5E7636813B1B8F1B8
:103C3000010F15D1226B23681288DA60236B0233DF
:103C40002363E38E9BB2013B9BB2E38608E0FDF762
:103C5000F1FFC01BA84202D3B5F1FF3F15D1A5B1BA
:103C6000E38E9BB2002B42D023689A6812F0020FB9
:103C7000EDD0226B1288DA60236B02332363E38E6C
:103C80009BB2013B9BB2E386EAE7012384F8513003
:103C9000002384F85030032645E0226B12781A7313
:103CA000236B01332363B4F836C01FFA8CFC0CF18C
:103CB000FF3C1FFA8CFCA4F836C0E38E9BB2B3B174
:103CC00023689A6812F0020FE7D1FDF7B3FFC01B1B
:103CD000A84202D3B5F1FF3F01D1002DEDD1012360
:103CE00084F85130002384F8503003261BE03A4614
:103CF00029462046FFF756FE08B120236365A368D6
:103D000033B901932368DA6801929B680193019BA0
:103D1000012384F85130002384F85030636D13B9C7
:103D2000002600E00226304603B0BDE8F0830226FC
:103D3000F9E72DE9F04383B00446884691461F46D3
:103D40000A9DFDF777FF064694F85130DBB26268B2
:103D5000012B0AD0B2F5827F40F00581A268002ACB
:103D600040F00581042B40F00481B8F1000F00F011
:103D70000281B9F1000F00F00081002F00F0FF80F8
:103D800094F85030012B00F0FC80012384F850306F
:103D900094F85130DBB2042B02D0052384F8513063
:103DA00000236365C4F83890E787A787C4F830809C
:103DB000E786A7862364636423681A6812F0400FBD
:103DC00003D11A6842F040021A60E368B3F5006F4D
:103DD00011D063680BB1012F0BD1226B23681278CD
:103DE0001A73236B01332363E38E9BB2013B9BB2B7
:103DF000E386012771E063680BB1012F0BD1226BC1
:103E000023681288DA60236B02332363E38E9BB24C
:103E1000013B9BB2E38601271BE023689A6812F0FE
:103E2000010F0ED0E28F92B25AB1DA68A36B1A80FA
:103E3000A36B0233A363E38F9BB2013B9BB2E38787
:103E40000127FDF7F7FE801BA84202D3B5F1FF3F23
:103E50001ED1E38E9BB21BB9E38F9BB2002B62D0C5
:103E600023689A6812F0020FD7D0E28E92B2002A2D
:103E7000D3D0002FD1D0226B1288DA60236B0233AB
:103E80002363E38E9BB2013B9BB2E3860027C4E72A
:103E9000012384F85130002384F85030032063E07C
:103EA00023689A6812F0010F0ED0E28F92B25AB1D5
:103EB000DA68A36B1A70A36B0133A363E38F9BB221
:103EC000013B9BB2E3870127FDF7B4FE831BAB42A6
:103ED00002D3B5F1FF3F1ED1EDB1E38E9BB213B912
:103EE000E38F9BB2FBB123689A6812F0020FD7D020
:103EF000E28E92B2002AD3D0002FD1D0226B12785A
:103F00001A73236B01332363E38E9BB2013B9BB295
:103F1000E3860027C4E7012384F85130002384F8A6
:103F20005030032020E0324629462046FFF73AFD74
:103F300090B9A36833B901932368DA6801929B684A
:103F40000193019B012384F85130002384F8503001
:103F5000636D4BB1012007E020236365002384F8E3
:103F60005030012000E0022003B0BDE8F0830220C1
:103F7000FAE70220F8E70120F6E70120F4E7012044
:103F8000F2E70220F0E72DE9F04383B090F85160AA
:103F9000F6B2012E40F0B4800446894690461D4694
:103FA0004368B3F5827F01D1836893B3FDF742FE86
:103FB0000746B9F1000F00F0A480B8F1000F00F03F
:103FC000A08094F85030012B00F09F80012384F8EA
:103FD0005030042384F8513000236365C4F83890CE
:103FE000A4F83C80A4F83E802363A386E386236480
:103FF0006364A368B3F5004F15D023681A6812F004
:10400000400F03D11A6842F040021A60E368F3B12E
:1040100043E0042380F85130009513460A46FFF729
:1040200088FE06466DE02268136823F040031360A3
:104030002268136823F480431360DEE7FDF7FAFD7E
:10404000C01BA84202D3B5F1FF3F15D1A5B1E38F44
:104050009BB2002B42D023689A6812F0010FEDD07A
:10406000A26B1B7B1370A36B0133A363E38F9BB223
:10407000013B9BB2E387EAE7012384F85130002338
:1040800084F8503003263CE0FDF7D4FDC01BA84265
:1040900002D3B5F1FF3F19D1C5B1E38F9BB2EBB1AC
:1040A00023689A6812F0010FEED0DA68A36B1A80C9
:1040B000A36B0233A363B4F83EC01FFA8CFC0CF16F
:1040C000FF3C1FFA8CFCA4F83EC0E6E7012384F80D
:1040D0005130002384F85030032612E03A46294636
:1040E0002046FFF79FFC08B120236365012384F875
:1040F0005130002384F85030636D13B9002600E07E
:104100000226304603B0BDE8F0830226F9E70268D4
:1041100002F10C0353E8003F23F490730C3242E8A1
:1041200000310029F3D1026802F1140353E8003F83
:1041300023F00103143242E800310029F3D1036B6C
:10414000012B05D0202380F8423000230363704701
:10415000026802F10C0353E8003F23F010030C3215
:1041600042E800310029F3D1ECE7000010B5044625
:104170000268136923F44053C1680B4313618368D9
:1041800002691A4343691A43C3691A430168CB6839
:1041900023F4164323F00C031343CB6002685369E6
:1041A00023F4407381690B4353610368314A93429E
:1041B00006D002F58062934202D0FEF7DDFE01E0F8
:1041C000FEF7EAFEE369B3F5004F29D0002103189A
:1041D00049411B1841F10001C90041EA5371DB005C
:1041E000181863684FEA83024FEA937341F10001A4
:1041F000FCF72AFD204AA2FB00314909642303FB96
:1042000011031B013233A2FB03235B0903F0F0020D
:1042100002EB011203F00F03216813448B6010BD01
:104220000023021843EB0301121841F10001C900F9
:1042300041EA5271D200101841F1000162689218EF
:104240005B41FCF701FD0C4AA2FB003149096423E4
:1042500003FB1103DB003233A2FB03235B095A008B
:1042600002F4F87202EB011203F007032168134411
:104270008B60D4E7001001401F85EB512DE9F0431E
:1042800083B005460E4617469946DDF828802B6810
:104290001C6836EA04040CBF01240024BC4228D167
:1042A000B8F1FF3FF3D0FDF7C5FCA0EB0900404596
:1042B00023D8B8F1000F22D02B68DA6812F0040F6F
:1042C000E5D0802EE3D0402EE1D01A6812F0080F1E
:1042D000DDD0002401941A6801925B680193019B70
:1042E0002846FFF714FF08236B6485F8404001203F
:1042F00000E0002003B0BDE8F0830320FAE70320CC
:10430000F8E760B310B5044690F8413013B32423A6
:1043100084F841302268D36823F40053D3602046E8
:10432000FFF724FF2268136923F490431361226886
:10433000536923F02A0353612268D36843F400537E
:10434000D36000206064202384F8413084F8423038
:10435000606310BD80F84030FEF7CEFAD7E7012049
:1043600070472DE9F04182B01E4690F84130DBB233
:10437000202B56D104460D469046002955D00AB947
:1043800001204FE000234364212380F84130FDF7F2
:1043900051FC0746A4F82480A4F82680A368B3F54E
:1043A000805F02D04FF0000814E023692BB34FF078
:1043B00000080FE0202384F84130032032E038F871
:1043C000023B2268C3F308035360E28C92B2013AC5
:1043D00092B2E284E38C9BB293B100963B460022FA
:1043E00080212046FFF74AFF0028E3D1002DE6D0C8
:1043F00015F8012B23685A60E7E7A8460025E9E78E
:1044000000963B46002240212046FFF737FF18B9AF
:10441000202384F8413005E0202384F84130032034
:1044200000E0022002B0BDE8F0810120FAE7FEE7DB
:10443000FEE7FEE7FEE7FEE770477047704708B506
:10444000FDF7ECFB08BD00000B4B1B680B4AA2FB01
:1044500003235B0A41F2883202FB03F31A46013B55
:104460003AB1426B12F0800FF8D0C523836300206D
:1044700070474FF00040704708000020D34D621095
:1044800084B00DF1040C8CE80E000B461343039A24
:104490001343049A1343059A1343069A134342683D
:1044A00022F4FD4222F07F0213434360002004B057
:1044B0007047D0F8800070470B68C0F8803000204B
:1044C00070470323036000207047006800F003007A
:1044D00070470B6883604B688A681343CA6813434C
:1044E0000A691343C2686FF30B021343C3600020D1
:1044F00070470069C0B270471430405870470B686D
:1045000043624B6883628B68CA6813430A6913432A
:104510004A691343C26A22F0F7021343C3620020C0
:10452000704710B586B004460023019302930393AD
:1045300004934FF48063059301A9FFF7CAFF204657
:10454000FFF782FF06B010BD38B504460D46504B4C
:104550001B685049A1FB03135B0A03FB02F21346DD
:10456000013A002B5DD0636B13F0450FF7D013F4C5
:10457000006FF4D1636B13F0040F06D1636B13F07B
:10458000010F05D00120A0634DE00420A0634AE0A4
:10459000C523A3632046FFF7ACFFA84201D001204A
:1045A00041E000212046FFF7A7FF03463A481840A4
:1045B000C8B3002B38DB13F0804F38D113F0005F05
:1045C00037D113F0805F36D113F0006F36D113F07E
:1045D000806F36D113F0807F36D113F4000F36D1BF
:1045E00013F4800F36D113F4001F36D113F4801F5B
:1045F00036D113F4802F36D113F4003F36D113F4A3
:10460000803F36D113F4004F36D113F4804F36D1AA
:1046100013F4005F36D113F0080F36D04FF40000CA
:1046200001E04FF0004038BD4FF00070FBE7402044
:10463000F9E78020F7E74FF48070F4E74FF400705B
:10464000F1E74FF48060EEE74FF40060EBE74FF4E2
:104650008050E8E74FF40050E5E74FF48040E2E790
:104660004FF40040DFE74FF40030DCE74FF48020E8
:10467000D9E74FF40020D6E74FF48010D3E74FF48A
:104680000010D0E74FF48000CDE74FF48030CAE748
:1046900008000020D34D621008E0FFFD30B587B060
:1046A00004460191102502954023039300230493AF
:1046B0004FF48063059301A9FFF70BFF41F28832A5
:1046C00029462046FFF740FF07B030BD30B587B020
:1046D000044601911125029540230393002304937E
:1046E0004FF48063059301A9FFF7F3FE41F288328E
:1046F00029462046FFF728FF07B030BD30B587B008
:10470000044601911225029540230393002304934C
:104710004FF48063059301A9FFF7DBFE41F2883275
:1047200029462046FFF710FF07B030BD30B587B0EF
:104730000446019118250295402303930023049316
:104740004FF48063059301A9FFF7C3FE41F288325D
:1047500029462046FFF7F8FE07B030BD30B587B0D8
:1047600004460191192502954023039300230493E5
:104770004FF48063059301A9FFF7ABFE41F2883245
:1047800029462046FFF7E0FE07B030BD30B587B0C0
:104790000446002301930C250295402203920493C2
:1047A0004FF48063059301A9FFF793FE034A29465E
:1047B0002046FFF7C9FE07B030BD00BF00E1F50598
:1047C00030B587B004460192072502954023039334
:1047D000002304934FF48063059301A9FFF779FE4A
:1047E00041F2883229462046FFF7AEFE07B030BDC1
:1047F00030B587B0044601913725029540230393D5
:10480000002304934FF48063059301A9FFF761FE31
:1048100041F2883229462046FFF796FE07B030BDA8
:1048200030B587B0044601910D25029540230393CE
:10483000002304934FF48063059301A9FFF749FE19
:1048400041F2883229462046FFF77EFE07B030BD90
:104850000146144B1B68144AA2FB03235B0A41F276
:10486000883202FB03F31A46013BBAB14A6B12F0DD
:10487000450FF8D012F4006FF5D14B6B13F0040F15
:1048800006D1486B10F0010005D1C5238B6370473A
:104890000420886370470120886370474FF0004010
:1048A000704700BF08000020D34D621010B586B0DD
:1048B00004460023019302220292C0220392049331
:1048C0004FF48063059301A9FFF703FE2046FFF72D
:1048D000BFFF06B010BD10B586B004460191092394
:1048E0000293C0230393002304934FF48063059342
:1048F00001A9FFF7EEFD2046FFF7AAFF06B010BDA5
:104900000146104B1B68104AA2FB03235B0A41F2CD
:10491000883202FB03F31A46013B82B14A6B12F064
:10492000450FF8D012F4006FF5D1486B10F0040079
:1049300002D1C5238B6370470420886370474FF012
:104940000040704708000020D34D621010B586B0BB
:10495000044641F0004141F4801101912923029362
:1049600040230393002304934FF48063059301A92C
:10497000FFF7AFFD2046FFF7C3FF06B010BD0000F4
:10498000F8B505460E461746234B1B68234AA2FB83
:1049900003235B0A41F2883202FB03F31A46013B10
:1049A0008AB36C6B14F0450FF8D014F4006FF5D196
:1049B0006B6B13F0040F06D16B6B13F0010F05D076
:1049C0000120A86321E00420A8631EE02846FFF729
:1049D00090FDB04201D0012017E0C523AB63002158
:1049E0002846FFF789FD034610F4604008D013F411
:1049F000804F0BD113F4004F0BD04FF4805004E0E4
:104A00001B0C3B8001E04FF00040F8BD4FF400501C
:104A1000FBE74FF48030F8E708000020D34D621028
:104A200070B586B004460D46002301930326029616
:104A30004022039204934FF48063059301A9FFF78A
:104A400048FD2A4631462046FFF79AFF06B070BD62
:104A50000146164B1B68164AA2FB03235B0A41F270
:104A6000883202FB03F31A46013BE2B14A6B12F0B3
:104A7000450FF8D012F4006FF5D14B6B13F0040F13
:104A80000BD14B6B13F001030AD1486B10F04000BF
:104A90000BD040228A631846704704208863704711
:104AA0000120886370474FF00040704708000020E5
:104AB000D34D621010B586B004464FF4D573019300
:104AC0000823029340230393002304934FF480634D
:104AD000059301A9FFF7FDFC2046FFF7B9FF06B0DB
:104AE00010BD0120704708B501F074F8162303606B
:104AF0004FF0FF3008BD08B54FF0FF31FFF7F3FF6F
:104B0000FEE770B50C461646002506E0AFF30080C0
:104B1000214601F8010B01350C46B542F6DB304663
:104B200070BD4FF0FF3070474FF400534B600020D2
:104B300070470120704700207047000010B5034601
:104B40000C4A0D490D48006840B10C480068034408
:104B5000521A934206D8094A136010BD0748084C00
:104B60000460F2E701F036F80C2303604FF0FF30E9
:104B7000F3E700BF0000022000040000B40300209F
:104B800008050020034AD2F8883043F47003C2F8C5
:104B90008830704700ED00E0DFF834D0FFF7F2FF17
:104BA0000C480D490D4A002302E0D458C450043388
:104BB000C4188C42F9D30A4A0A4C002301E013605E
:104BC0000432A242FBD301F00BF8FCF757FD70470B
:104BD0000000022000000020D4010020BC9A000840
:104BE000D401002004050020FEE72DE9FF4757EC23
:104BF000106B002F0C4619463B46BBBF07F1004324
:104C00001F4600232D230B700D9BDDF830A091462D
:104C100023F02008BCBF32461646B8F1460F05D037
:104C2000B8F1450F00D10134022100E0032103ABAC
:104C3000019302AB009347EC106B5346224601F000
:104C400087F8B8F1470F054619D119F0010F0ED0BA
:104C500000EB04090022002330463946FBF714FF1D
:104C600008B1CDF80C903022039B4B451ED3039B1B
:104C70000E9A5B1B2846136004B0BDE8F087B8F1BC
:104C8000460F00EB0409E5D10378302B0AD100224E
:104C9000002330463946FBF7F7FE18B9C4F101048A
:104CA000CAF80040DAF800309944D3E7591C039160
:104CB0001A70D9E7F7B50029BABF49422D232B2333
:104CC00009290270437029DD0DF107031D460A27EB
:104CD0001A46B1FBF7F607FB1614303402F8014C04
:104CE0000C46632C03F1FF333146F1DC3031941E66
:104CF00003F8011C411C2346AB420AD30DF1090302
:104D00009B1AAC4288BF002302330344181A03B035
:104D1000F0BD13F8016B01F8016FEDE7302330317E
:104D20008370C170031DF1E72DE9F04F8DB00C4683
:104D3000DDF8588016461F46054600F001FF03685F
:104D400004931846FBF774FA00230A93D8F800304E
:104D50000590073323F0070303F1080294F818A025
:104D6000D4F800B0C8F80020D3E9008929F0004346
:104D70000793CDF81880C4E91289DDE906019C4B40
:104D80004FF0FF32FBF7B2FE70BBDDE90601984B36
:104D90004FF0FF32FBF78CFE30BB00220023404671
:104DA0004946FBF77BFE10B12D2384F84330914A2E
:104DB000914BBAF1470F8CBF90469846032323616D
:104DC0002BF0040323604FF00009009733460BAA31
:104DD0002146284600F0D2F9013040F08D804FF096
:104DE000FF300DB0BDE8F08F42464B464046494685
:104DF000FBF77CFE40B14B46002BBCBF2D2384F853
:104E000043307E4A7E4BD4E763680AF0DF020692A5
:104E10005A1C3BD1062363604BF48062002322605E
:104E200003930AABCDE901A309AB0093616849EC98
:104E3000108B0DF123032846FFF7D7FE069B099937
:104E4000472B804629D1C81C02DB6368994241DDAB
:104E5000AAF1020A5FFA8AFA0139524604F15000B7
:104E60000991FFF727FF0A9A1318012A8146236147
:104E700002DC2268D20701D5013323619DF823307B
:104E8000002BA2D02D2384F843309EE7069A472AB0
:104E9000C2D1002BC0D10123BDE7BAF1650FDBD928
:104EA000BAF1660F18D1002963680BDD216113B9CF
:104EB0002268D00702D501330B442361A1654FF06E
:104EC0000009DBE713B92268D20701D50233F4E702
:104ED0000123F2E74FF0670A0A9B994205DB23683A
:104EE0002161D807EAD54B1CE7E70029D4BFC1F1FF
:104EF000020201221344E0E723685A0507D423691C
:104F0000424631462846B84701302BD167E7BAF10F
:104F1000650F40F2DD80D4E9120100220023FBF787
:104F2000B3FD002833D0374A012331462846B8471D
:104F300001303FF454AFDDE90938434502DB236813
:104F4000D8070FD5DDE9042331462846B84701309C
:104F50003FF445AF4FF0000908F1FF3804F11A0A99
:104F6000C84509DC23689B0700F10381E0680B9BBF
:104F70009842B8BF184634E70123524631462846C6
:104F8000B84701303FF42BAF09F10109E8E7099B6D
:104F9000002B39DC1B4A012331462846B847013033
:104FA0003FF41DAFDDE9093959EA030302D1236853
:104FB000D907D7D5DDE9042331462846B847013063
:104FC0003FF40DAF4FF0000A04F11A0B099B5B424E
:104FD000534501DC4B4693E701235A4631462846A8
:104FE000B84701303FF4FBAE0AF1010AEEE700BF1B
:104FF000FFFFEF7F84960008809600088C960008DB
:105000008896000890960008A36DDDF828A0534507
:10501000A8BF5346002B994636DC4FF0000B29EA17
:10502000E97904F11A02A36D0693A3EB09035B452A
:1050300031DC099B9A453ADC2368DA0737D4099BAF
:10504000AAEB0309069BAAEB03039945A8BF99465F
:10505000B9F1000F33DC4FF0000829EAE97904F1D7
:105060001A0B099BAAEB0303A3EB090343457FF744
:1050700079AF01235A4631462846B84701303FF4FC
:10508000AEAE08F10108ECE7424631462846B84783
:105090000130C2D1A3E60123314628460692B84723
:1050A00001303FF49CAE069A0BF1010BBBE7DDE942
:1050B000042331462846B8470130C0D18FE6069A0E
:1050C0004B46424431462846B8470130C3D186E6B4
:1050D000DDF828A0BAF1010F01DCDB0736D501238A
:1050E000424631462846B84701303FF478AEDDE904
:1050F000042331462846B84701303FF470AED4E966
:105100001201002200230AF1FF3AFBF7BDFCC0B9EF
:10511000534608F1010231462846B84701300CD108
:105120005DE601235A4631462846B84701303FF430
:1051300056AE08F10108D045F3DB4B4604F15002AE
:10514000DFE64FF0000804F11A0BF4E701234246B2
:10515000E1E701234A4631462846B84701303FF48B
:105160003EAE08F10108E3680B995B1A4345F0DC99
:10517000FCE64FF0000804F11909F4E72DE9F047C7
:10518000164698468A680B69DDF820909342B8BFAE
:105190001346336091F8432007460C460AB10133A9
:1051A00033602368990642BF336802333360256851
:1051B00015F0060506D104F1190AE36832689B1A56
:1051C000AB4226DC94F843302268003B18BF012331
:1051D00092062BD404F1430241463846C8470130B9
:1051E0001ED02368226903F00603042B02BFE56882
:1051F0003368ED1AA3680CBF25EAE57500259342D4
:10520000C4BF9B1AED1800261A34B5421AD10020EB
:1052100008E00123524641463846C847013003D1D1
:105220004FF0FF30BDE8F0870135C6E7E1185A1CA2
:10523000302081F84300224494F8451082F843104E
:105240000233C7E70123224641463846C8470130AA
:10525000E6D00136D9E700002DE9FF470F7E0C9E0E
:10526000782F914680460C469A4601F1430207D8B2
:10527000622F0AD8002F00F0D180582F00F0B8809C
:1052800004F1420684F842703AE0A7F16303152B5B
:10529000F6D801A151F823F0F15200080553000897
:1052A0008152000881520008815200088152000892
:1052B00005530008815200088152000881520008FD
:1052C00081520008035400082F530008BD53000802
:1052D00081520008815200082554000881520008BC
:1052E0002F5300088152000881520008C55300085E
:1052F00033681A1D1B68326004F1420684F842309C
:1053000001239CE033682068191D3160060601D531
:105310001D6803E04506FBD5B3F90050002D03DA04
:105320002D236D4284F8433058480A2311E0216848
:105330003368080653F8045B02D4490648BFADB28F
:105340006F2F5248336014BF0A230823002184F8CA
:1053500043106668A660002E05DB21682E4321F00D
:10536000040121604BD01646B5FBF3F103FB115746
:10537000C75D06F8017D2F46BB420D46F4D9082BC8
:105380000BD12368DF0708D5236961689942DEBF26
:10539000302306F8013C06F1FF36921B2261CDF85E
:1053A00000A04B4603AA21464046FFF7E7FE013026
:1053B0004AD14FF0FF3004B0BDE8F087236843F0D6
:1053C000200323603248782784F8457023683168C9
:1053D0001F0651F8045B02D45F0648BFADB23160CE
:1053E000D90744BF43F0200323601DB11023ADE76C
:1053F0002648E9E7236823F020032360F6E71646F2
:10540000BDE7336825686169181D30602E061B688A
:1054100001D5196002E06806FBD5198000232361DD
:105420001646BCE733681A1D32601E6862680021A8
:105430003046FAF7ADFE08B1801B606063682361F7
:10544000002384F84330AAE72369324649464046A0
:10545000D0470130ADD023689B0713D4E068039B8D
:105460009842B8BF1846A6E701233246494640464F
:10547000D04701309DD00135E36803995B1AAB42F8
:10548000F2DCEBE7002504F11906F5E79296000837
:10549000A39600082DE9F04F87B0174603938B6859
:1054A0005A1EB2F5AE7F81BF6FF4AE7503EB050BEC
:1054B00040F25D138B600B680A464FF0000543F421
:1054C000F06342F81C3BCDE9045580460C4698BF7A
:1054D0004FF0000B01921646AA46A9460295A26813
:1054E00052B13B681B784E2B64D8402B3CD8A3F1BB
:1054F0002B01C8B20E283AD9B9F1000F03D02368A6
:1055000023F4807323600AF1FF3ABAF1010F00F22D
:105510001781019B9E4200F20881012007B0BDE87F
:10552000F08FA3F161020D2AE6D801A151F822F013
:1055300077560008F9540008F9540008F954000897
:10554000D7560008AF560008F9540008F95400086F
:1055500085560008F9540008F9540008F954000869
:10556000F95400083D560008A3F14102DBE70E297B
:10557000C2D801A050F821F02D560008F9540008B7
:105580002D560008C3560008F9540008D5550008E8
:105590001356000813560008135600081356000847
:1055A0001356000813560008135600081356000837
:1055B000135600086E2B09D8602BB2D8542B7BD021
:1055C000592B99D1072D97D108252CE0742B73D036
:1055D000792BF6E72168C8051BD521F080012160F1
:1055E00009F10109BBF1000F03D001320BF1FF3BC0
:1055F000A260A368013BA3602369013323617B6838
:10560000013B002B7B6040F387803B6801333B60AC
:1056100065E71AEB05017FF46FAF226822F4C072D0
:1056200022600D468A4606F8013BE2E72268100632
:105630007FF562AF22F080022260F4E7BAF1000F3A
:105640000ED1B9F1000F0ED1226802F4E061B1F57C
:10565000E06F08D122F4F06222604FF0010AE2E725
:10566000BAF1020F55D0012D02D0042D7FF444AFC2
:105670000135EDB2D7E7BAF1010F7FF43DAF4FF03E
:10568000020AD0E77DB9B9F1000F7FF438AF226884
:1056900002F4E061B1F5E06F40F0088122F4F062BD
:1056A00022600125BFE7032DE2D0052DDEE7022DA4
:1056B0007FF422AF0325B6E7062D7FF41DAF072543
:1056C000B1E7226891057FF517AF22F420722260BE
:1056D000CDF80890A7E7226802F4A061B1F5806FC9
:1056E00006D050057FF508AFB9F1000F00F0DE805D
:1056F000910558BF029922F4F06258BFA9EB01014D
:1057000042F4C07258BFCDE9041622604FF0000980
:1057100089E74FF0030A86E7D4F8803139464046DE
:10572000984700283FF4DBAEE6E6D4F87C3116F863
:10573000011D3A46404698472369013B2361E8E64C
:105740006B1E062B24D8022D36D8019B9E427FF675
:10575000E4AED4F87C3116F8011D3A46404698472D
:105760002369013B2361F0E7D4F87C311BF8011D6C
:105770003A46404698472369013B23610AF1FF3AC4
:105780005FFA8AFABAF1020FEED1033DEDB2761B51
:105790002368DA0530D55B0511D5019B9E427FF663
:1057A000BCAED4F87C3116F8011D3A464046984705
:1057B0002369013B2361F0E7AA46B346DEE716F80A
:1057C000011C2369652903F1FF3306F1FF352361CD
:1057D0000CD045290AD0D4F87C313A464046984747
:1057E000236916F8021C013BB51E2361D4F87C31F5
:1057F0003A46404698472E46226812F0100201D0E1
:1058000000208BE63270236803F4C063B3F5806F29
:105810001CD1029B9945A3EB090223D101990022D7
:10582000404602F0FDFB039B21681B6811F0020F4C
:1058300057EC106B03F104021FD003990A601B6838
:10584000C3E90067E3680133E360D9E7049B002BF9
:10585000E4D005990A230131404602F061FC049B23
:10586000059EC21A04F26F139E4228BF04F5B77654
:105870001049304600F0F6F8D0E711F0040F039914
:105880000A60DCD11D6832463B4630463946FBF79C
:105890002DF928B1084800F0CBF985ED000AD1E7D1
:1058A00030463946FBF780F92860CBE74FF0000916
:1058B00029E600BFB4960008F7970008002310B54A
:1058C0000446C0E90033C0E9043383608181436644
:1058D000C2818361194608225C3000F028F90D4B23
:1058E00063620D4BA3620D4BE3620D4B23630D4BC3
:1058F00024629C4206D003F16802944202D0D03365
:105900009C4205D104F15800BDE8104000F08CB96C
:1059100010BD00BFA95A0008CB5A0008035B00085D
:10592000275B0008B8030020024A0349034800F03F
:1059300069B800BF0C000020618700081C0000202F
:1059400041680C4B994210B5044601D002F008FFA3
:10595000A168094B994202D0204602F001FFE1689C
:10596000064B994204D02046BDE8104002F0F8BE34
:1059700010BD00BFB80300202004002088040020D0
:1059800010B50B4B0B4C0C4A1A6020460022042128
:10599000FFF794FF04F1680001220921FFF78EFF51
:1059A00004F1D0000222BDE810401221FFF786BFAB
:1059B000F0040020B803002029590008014800F035
:1059C00034B900BFF9040020014800F02FB900BF2E
:1059D000F904002010B50446FFF7F0FF236A1BB15D
:1059E000BDE81040FFF7F0BF044B2362044B1B6877
:1059F000002BF5D1FFF7C4FFF2E700BF41590008C3
:105A0000F00400202DE9F843074688461446002696
:105A1000D4E90195B9F1010905D52468002CF7D125
:105A20003046BDE8F883AB89012B07D9B5F90E30B4
:105A3000013303D029463846C04706436835E9E7B5
:105A40000FB407B5064904AB086853F8042B816806
:105A5000019302F0E9FC03B05DF804EB04B0704779
:105A6000180000200EB410B59DB01FAB0290069038
:105A70006FF000410A48079104910A4953F8042B3A
:105A80000591002402A9006801931B9402F0A6FB73
:105A9000029B1C701DB0BDE8104003B0704700BFF2
:105AA000180000200802FFFF10B50C46B1F90E10D7
:105AB00000F06CF80028ABBF636DA3891B1823F4BA
:105AC0008053ACBF6365A38110BD2DE9F0411F4633
:105AD0008B89DB0505460C46164605D5B1F90E1037
